:020000040800F2
:10000000581400209D0100086D3000085926000892
:1000100069300008F9080008813800080000000075
:10002000000000000000000000000000B9310008DE
:100030005D090008000000009D300008293200081A
:10004000B7010008B7010008B7010008B7010008B0
:10005000B7010008B7010008B7010008B7010008A0
:10006000B7010008B7010008B7010008B701000890
:10007000B7010008B7010008B7010008B701000880
:10008000B7010008B7010008B7010008B701000870
:10009000B7010008B7010008B7010008B701000860
:1000A000B7010008B7010008B7010008B701000850
:1000B000E9320008B7010008B7010008B7010008DD
:1000C000B7010008B7010008B7010008B701000830
:1000D000B70100087537000885370008B701000828
:1000E000B7010008B7010008B7010008B701000810
:1000F000B7010008B7010008B7010008B701000800
:10010000B7010008B7010008B7010008B7010008EF
:10011000B7010008B7010008B7010008B7010008DF
:10012000B7010008B7010008B7010008B7010008CF
:10013000B7010008B7010008B7010008B7010008BF
:10014000B7010008B7010008B7010008B7010008AF
:10015000B7010008B7010008B7010008B70100089F
:10016000B7010008B7010008B7010008B70100088F
:10017000B7010008B7010008B7010008000000003F
:10018000B7010008B7010008DFF80CD000F01EFB33
:10019000004800478139000858140020064880476D
:1001A00006480047FEE7FEE7FEE7FEE7FEE7FEE75C
:1001B000FEE7FEE7FEE7FEE7CD3200088901000812
:1001C0002DE9F05F0546002092469B46884606468C
:1001D000814640241BE0284641464746224600F01F
:1001E0000EFA53465A46C01A914110D3114618468A
:1001F000224600F0F5F92D1A67EB01084F4622461A
:100200000120002100F0ECF917EB00094E41201EFF
:10021000A4F10104DFDC484631462A464346BDE8E6
:10022000F09FD2B201E000F8012B491EFBD27047CB
:100230000022F6E710B513460A4604461946FFF7B2
:10024000F0FF204610BD2DE9FE4F804681EA0300F5
:10025000C00F0C46009021F0004123F00045B8EBA0
:100260000200A94105D24046214690461C460B4655
:10027000024623F00040104347D0270DC7F30A0081
:10028000C3F30A510290401A019040286BDAC3F37D
:10029000130040F4801B0098924620B10023D2EB5B
:1002A000030A63EB0B0B01985946C0F1400250461C
:1002B00000F096F906460D4650465946019A00F060
:1002C000AEF910EB08006141002487EA115284EA7C
:1002D000E7731A4340D0009A62B3019A012A4FEAA9
:1002E000075215DC001B61EB02014FF0004202EAED
:1002F0000752CDE90042001C41F5801132462B46E1
:1003000000F0E5F903B0BDE8F08F40462146F9E77B
:10031000001B61EB0201001C41F5801300185B41DA
:100320002018A2F5001747EB030140EAD570B61973
:100330006D4111E06D084FEA360645EAC0754FEA97
:100340000752001B61EB0201001C41F580114908B6
:100350004FEA30000019514132462B4603B0BDE848
:10036000F04F00F0A5B90098012240000023D0EB27
:10037000020263EBE073009821464FEAE074B8EBA9
:10038000000061EB0401E9E783F000435BE781F0E3
:10039000004158E72DE9FE4F81EA030404F00044D0
:1003A00021F0004100944FF0000B23F0004350EA8D
:1003B00001045ED052EA03045BD0C3F30A54C1F3D4
:1003C0000A552C44A4F2F3340194A0FB0254C1F367
:1003D000130141F48011C3F3130343F4801301FBB1
:1003E000024400FB034E840A970A44EA815447EA18
:1003F0008357A4FB076802958D0A05FB07854FEA22
:10040000932C04FB0C542705029D4FEA065847EA3B
:100410001637B5EB08056EEB070C870E920E47EA10
:10042000811742EA8312A7FB0201B6EB0B0164EBD2
:1004300000042B0D43EA0C335E1844EB1C50DA46E3
:100440005146E7FB0201C5F313044FEA0B3343EABD
:1004500014534FEA0432019C43EA0603A4F10C044E
:100460000294009CCDE900B400F031F903B0BDE87E
:10047000F08F00200146F9E72DE9F04D81EA0304F1
:1004800004F0004B21F0004514464FF0000A23F021
:10049000004150EA050220D054EA01021DD0C5F304
:1004A0000A570246C5F31303C1F31300C1F30A56FA
:1004B00040F4801543F48013A7EB0608101BD646C2
:1004C00008F2FD3873EB050002D308F1010801E0E2
:1004D00092185B41B8F1000F03DA00200146BDE835
:1004E000F08D00204FF48011064684460EE0171B65
:1004F00073EB050705D3121B63EB050306434CEAB8
:10050000010C49084FEA300092185B4150EA01079C
:10051000EDD152EA030012D082EA040083EA050119
:10052000084305D0101BAB4106D20122002306E090
:1005300000224FF0004302E06FF0010253101AEB6B
:1005400006004CEB085110EB0A0041EB0B01BDE833
:10055000F04D00F0ADB800F0004230F000400AD09D
:10056000C10D01F56071C0F3160042EA0151C208E5
:1005700040071143704700200146704701F00043D7
:1005800030B421F0004150EA010206D00A0DA2F574
:100590006072C1F31301002A02DC30BC00207047F6
:1005A000440F44EAC104C100E01830BC00EBC25063
:1005B00000F047B830B50B46014600202022012448
:1005C00009E021FA02F59D4205D303FA02F5491B21
:1005D00004FA02F52844151EA2F10102F1DC30BD37
:1005E000202A04DB203A00FA02F1002070479140F3
:1005F000C2F1200320FA03F3194390407047202AE8
:1006000004DB203A21FA02F00021704721FA02F3BC
:10061000D040C2F120029140084319467047202A79
:1006200006DBCB17203A41FA02F043EAE07306E01A
:1006300041FA02F3D040C2F120029140084319462A
:1006400070470029A8BF7047401C490008BF20F030
:100650000100704710B4B0FA80FC00FA0CF050EAC8
:10066000010404BF10BC704749B1CCF1200421FA49
:1006700004F411FA0CF118BF012121430843A3EB44
:100680000C01CB1D4FEA00614FEA102042BF002051
:1006900010BC704700EBC35010440029A4BF10BC2D
:1006A0007047401C490008BF20F0010010BC704793
:1006B00010B5141E73F1000408DA401C41F100016A
:1006C00092185B411A4301D120F0010010BD2DE9C1
:1006D000F04D92469B4611B1B1FA81F202E0B0FAB8
:1006E00080F220329046FFF77BFF04460F4640EA37
:1006F0000A0041EA0B0153465A46084313D01146FB
:1007000053EA010019D0C8F140025046FFF777FFC5
:1007100005460E46504659464246FFF761FF0843DC
:1007200005D0012004E020463946BDE8F08D0020C8
:10073000054346EAE0762C4337430A986305E40A0A
:10074000A0EB08000022FD0A44EA47540A3002D513
:1007500000200146E9E7010510196941DDE9084576
:1007600000196941BDE8F04DA2E7C1F30A52C1F397
:10077000130140F2FF3341F480119A4202DA002063
:100780000146704740F233439A42A2F2334202DC00
:100790005242FFF734BFFFF723BF000030B5041EFD
:1007A00071F1000404DB4FF00044404264EB0101AE
:1007B000141E73F1000405DB1C464FF00043524247
:1007C00063EB0403994208BF904230BD064C074DCD
:1007D00006E0E06840F0010394E807009847103411
:1007E000AC42F6D3FFF7D4FCF848000818490008DB
:1007F00010B542F20432C4F20102116821F4403112
:100800001160D2F800C090E80A4043EA0C03C468C3
:1008100013604A6822F480724A6002694B6843EAB6
:1008200002224A604A6822F040724A604A6842EAFC
:100830000E024A608A6822F400628A608A68224353
:100840008A60826A8B68012423F070638B608B68F6
:10085000C0F60074A24202D123F0405208E01A43CD
:100860008A608A6822F040528A60C26A8B681A43A2
:100870008A608A6822F002028A608A68037E90F8A1
:10088000204042EA43028A604A6884B142F400622E
:100890004A604A684EF2000322F460424A60426AAB
:1008A000CFF6FF734C6803EB4232224301E022F49F
:1008B00000624A60CA6A40F2000C22F47002CA6206
:1008C000C3694269CFF6F07CCC6A0CEB0353234337
:1008D000CB628B6823F400738B6090F830008B68D8
:1008E00043EA40208860886820F4806088608868D7
:1008F00040EA8220886010BDFEE700002DE9F0414B
:1009000040F24606C2F2000640F60048307840F257
:100910003007C4F20208C2F20007387040460121D5
:100920000022002400F0AAFB40F21035C2F20005BC
:100930003919284601220A2301F02AFE0134142C19
:10094000F6D1022000F0B4FA40460121012200F065
:1009500095FB307801303070BDE8F08170470000C1
:10096000704700002DE9F04F85B09B460E9B154661
:100970001A780491002A019000F0B980DDF8048013
:1009800007E000BF023308F110081A78002A00F0CF
:10099000AE8050B2B0F1FF3F08DD0D2A68D1049857
:1009A000DDF80480103004900133EEE708F1080907
:1009B0000020029306E000BF0398029B312800F15B
:1009C0000100DFD2039018780028F5D10298407812
:1009D0000028F1D1002404E054460AF10104102C4F
:1009E000EAD044F6D500C0F6000000EB440086785B
:1009F00004984FF0000A07190CE000BF08EB0A004A
:100A000080B2B9B22A4600F075F80AF1010ABAF1CB
:100A1000080F0BD006FA0AF00006EFD45D45F4D0BB
:100A200008EB0A0080B2B9B25A46ECE7600044F61F
:100A3000D5010130C0F6000108448678A2460024A2
:100A40000AE000BF09EB040080B2B9B22A4600F008
:100A500051F80134082CBFD006FA04F00006F1D496
:100A60005D45F6D009EB040080B2B9B25A46EEE714
:100A70004FF60061C0F20F014FF0000A4FF000097D
:100A8000029301EB021001F5F871202A88BF00EAF9
:100A9000010904E00AF1010ABAF1100F22D044F270
:100AA000E4210AEB0900C0F600010E5C0498002462
:100AB00000EB0A070AE000BF08EB040080B2B9B2FD
:100AC0002A4600F017F80134082CE3D006FA04F0A7
:100AD0000006F1D45D45F6D008EB040080B2B9B24F
:100AE0005A46EEE7029B08F1080801334DE705B0CE
:100AF000BDE8F08F10B5144601F0F2FF204602F079
:100B00001DF810BD70B581B00022009290F83C2015
:100B1000012A01D1022156E00E6801221FFA86FC4B
:100B200080F83C204FEA4C0212FA86F302680A2E43
:100B300032BF10321E3B0C324FF0070E15680EFA12
:100B400003F4A54315608D68146805FA03F3234385
:100B500013604968062906D8026801EB810105394E
:100B600002F134030AE00C2901EB8101026887BF1E
:100B7000413902F12C03233902F130031F221C6892
:100B80008A4024EA02021A601A680CFA01F1114341
:100B900042F2043E1960C4F2010E0168122EAEF555
:100BA000417208BF914205D1DEF8003043F4800362
:100BB000CEF8003026F00103102B08BF914205D07B
:100BC000002180F83C10084601B070BDDEF800102E
:100BD000102E41F40001CEF80010F1D140F21C01BA
:100BE000C2F2000109684DF68362C4F21B32A1FB18
:100BF0000212910C01EB8101490000BF00910099A4
:100C00000029DDD000990139F8E70000006C704739
:100C10000068C06C70470000B0B510B30446006CAB
:100C200030B9204600F020F80020606484F83C00D1
:100C3000206C0125C0060FD4206C41F202118843BC
:100C4000023020642046FFF7D3FD00206064206C52
:100C500065F3010000252064002084F83C0028464C
:100C6000B0BD0120B0BD000080B586B00022059265
:100C7000CDE9032242F200010068C4F2010188427A
:100C80000292019201D006B080BD43F6300000927E
:100C9000C4F20200436943F480734361436903F47F
:100CA00080730093009B0092036843F0010303608C
:100CB000006800F0010000900098012001900320DE
:100CC000CDE9020201F5604001A900F005F906B086
:100CD00080BD0000F0B581B0044600680D46826812
:100CE000520544BF80685FEAC0500AD400F0CCF9D6
:100CF00021680A68920724D4CDB106466F1C0BD038
:100D000010E0206C40F020002064002084F83C00BB
:100D1000012001B0F0BD00BF21680868800710D431
:100D2000002FF9D000F0B0F9801BA842F4D9206C54
:100D300040F004002064002084F83C00032001B04F
:100D4000F0BD6FF012000860206C40F40070206469
:100D5000886810F0405F01D1207E10B1002001B002
:100D6000F0BDC86A10F4700F02D088684005F5D451
:100D7000206C20F480702064206CC004EED4206CC1
:100D800040F001002064E9E781B00021009190F873
:100D90003C10012902BF022001B070470122016806
:100DA00080F83C208A68D20718D18A684DF68363A0
:100DB00042F001028A6040F21C02C2F20002126894
:100DC000C4F21B33A2FB03239A0C02EB420200BFC6
:100DD0000092009A12B1009A013AF9E78A68D207A4
:100DE00051D0026C40F201739A4302F580720264A2
:100DF0004A68520504D5026C012363F30D32026484
:100E0000026C00234FF0000CD20444BF426C22F06D
:100E1000060342F20432436480F83CC06FF02200C3
:100E2000C4F2010208601068C006A2F541700AD041
:100E3000814228D14FF60450CFF6FF70105810F0C1
:100E4000405F20D11BE0814215D042F20020C4F265
:100E5000010081420CD042F20010C4F20100814234
:100E600011D11068C00606D0A2F5827081420AD165
:100E70001068C00607D4886810F0405F03D1886806
:100E800040F080408860002001B0704790F8351035
:100E9000022909D1052180F835100068016821F088
:100EA00001010160002070478021416501207047E9
:100EB000B0B5044600F0E8F8054640F22000C2F262
:100EC00000000078611C18BF044400BF00F0DCF88B
:100ED000401BA042FAD3B0BD2DE9F04F83B000F122
:100EE0003E4202F1FF724FEAB22241F60047019200
:100EF000C4F202070822012600254FF000084FF037
:100F00000009B84208BF0722009209E009F101096F
:100F100008F10408B9F1100F05F1020500F0A380F3
:100F20000C6806FA09FB14EA0B0CEFD0D1F804A008
:100F3000BAF1120F17D806FA0AF414F0061F12D0ED
:100F400084680322CF6802FA05FE24EA0E04AF404B
:100F5000274387604768CAF3001427EA0B0704FA9F
:100F600009F4274347600322C76802FA05F48A6838
:100F7000A743AA403A434AF010076FEA040E122F23
:100F8000C26010D16FF0030202EA59020244176AEC
:100F900008F01C060F230C69B34027EA0303B44092
:100FA00001262343136202684B6802EA0E0203F033
:100FB0000307AF403A43DB000260A7D5002243F6A7
:100FC00044030292C4F202031A6843F6004442F456
:100FD00080421A601A68C4F2010402F4804202924C
:100FE000029A29F003024FF6084A2244CFF6FF7A0C
:100FF00052F80A3008F00C070F26BE4023EA060E0E
:10100000019B009E072B38BF1E4606FA07F747EAEA
:101010000E0342F80A3022684B6842EA0C07DE03EE
:1010200058BF22EA0C07276062689E0342EA0C0759
:1010300058BF22EA0C076760A268DE0242EA0C078A
:1010400058BF22EA0C07A76043F60C47C4F2010719
:101050003A689B024FF0010642EA0C0358BF22EAAD
:101060000C033B6052E703B0BDE8F08F42690A40D1
:101070008A4208BF0904816170470000002A08BF46
:10108000090481617047000040F25440C2F2000040
:101090000068704770B5B0B3044690F83D0028B9B9
:1010A000002084F83C00204600F0BCF8242084F89E
:1010B0003D002068016821F001010160016841F4F0
:1010C00000410160016821F40041016000F0A4FAD0
:1010D00048F28041C0F21E0140F600126668884264
:1010E0004FF00001C0F23D0248F2A16C4FF0000346
:1010F00038BF01219042C0F2010C38BF0123664580
:1011000038BF0B460BB1012070BD4DF68361C4F2B0
:101110001B31A0FB01122168930C4D68664525F038
:101120003F0545EA92424A600A6A22F03F0C09D321
:101130004FF496725A4344F6D353C1F26203A2FBB2
:1011400003239B095A1C42EA0C020A6248F2A0637C
:10115000CA69C0F201039E424CF6FF7322EA030CF7
:101160000AD801387200B0FBF2F001306FF31F3083
:10117000042898BF04202BE0A368A0F1010E9BB1C6
:1011800019207043BEFBF0F00422013062F31F30DF
:10119000000512D09BB119207043BEFBF0F0042271
:1011A000013062F31F3011E006EB4600BEFBF0F0A9
:1011B00001306FF31F300005ECD1012008E006EB91
:1011C0004600BEFBF0F001306FF31F3040F40040EA
:1011D00040EA0C00C8610868D4E9072320F0C00089
:1011E000104318430860886848F2FF3204F10C0687
:1011F00090434CCE18431043A5698860C86820F01E
:10120000FF0030432843C860086840F001000860D0
:1012100000202021206484F83D10206384F83E00E3
:1012200070BD00002DE9F04F87B00026CDE90566BE
:10123000CDE90366006845F60041C4F2000188422A
:10124000029635D045F60001C4F20001884279D0FB
:1012500045F20041C4F20001884270D1002543F6F6
:1012600030040195C4F20204206802A940F0020093
:101270002060206800F0020001900198C0200290D8
:101280001220039001200490032005900420069072
:101290000020C4F2020000F58060FFF71DFE0195FA
:1012A000206940F400102061206900F4001071E012
:1012B00043F630070196C4F202073868002440F074
:1012C000040038603868C4F2020400F004000190A1
:1012D00001980196386802AD40F001003860386826
:1012E0004FF0120800F00100019001984FF40070D7
:1012F00002904FF001094FF0030A4FF0040B04F580
:1013000000602946CDF80C80CDF81090CDF814A0DF
:10131000CDF818B0FFF7E0FD4FF4807002A981E826
:10132000010F20462946FFF7D7FD0196386940F4A2
:1013300000003861386900F400000190019807B09E
:10134000BDE8F08F002543F630040195C4F2020495
:101350002068122140F020002060206800F020006A
:10136000019001980320039101210290CDE904101E
:10137000042006900020C4F2020000F5A05002A94B
:10138000FFF7AAFD0195206940F4800020612069E3
:1013900000F480000190019807B0BDE8F08F0000D4
:1013A00040F2200040F25441C2F20000C2F20001BB
:1013B00000780A68104408607047000080B543F662
:1013C0000040C4F20200016841F40071016001684C
:1013D00041F480610160016841F480710160032083
:1013E00000F060F8002000F005F800F02BF8002075
:1013F00080BD0000B0B540F22002C2F2000240F20F
:101400001C011278C2F200014FF47A730968B3FB31
:10141000F2F20446B1FBF2F1084600F045FC0F2C55
:101420004FF001050CD858B94FF0FF30214600228B
:10143000002500F027F840F22400C2F2000004600A
:101440002846B0BD82B0002043F640010190C4F2AE
:1014500002014A6842F480424A604A6802F48042CB
:101460000192019A0090086840F080500860086876
:1014700000F080500090009802B0704780B502F0F4
:1014800045FA80BD70B514460D46064602F04EFA88
:101490002946224601F0ECFD0146304602F04EFAA4
:1014A00070BD000080B502F05BFA80BD2DE9F0410F
:1014B000002800F08B8043F60808C4F202080446B6
:1014C000D8F8F8030D4600F00F00884207D288F8DC
:1014D000F853D8F8F80300F00F00A84276D120683E
:1014E000810717D5410705D5D8F8001041F4E05120
:1014F000C8F80010010705D5D8F8001041F4604184
:10150000C8F80010D8F80010A26821F0F0011143CB
:10151000C8F80010C0073FD1D8F8F80300F00F005A
:10152000A84207D988F8F853D8F8F80300F00F005C
:10153000A8424BD12068410707D5D8F80010E268CF
:1015400021F4E0511143C8F80010000708D5D8F87D
:101550000000216920F4604040EAC100C8F80000A2
:1015600000F07EF8D8F8001044F2CC22C1F3031149
:10157000C0F60002515C40F21C0220FA01F140F278
:101580002400C2F200000068C2F200021160FFF7FE
:1015900031FF0020BDE8F0816068811E022907D27A
:1015A00058F8081C89015CBF0120BDE8F08110E0FB
:1015B000012807D158F8081C89035CBF0120BDE849
:1015C000F08106E058F8081C890702D40120BDE824
:1015D000F081D8F8001021F003010843C8F800009A
:1015E000FFF752FD064641F2883700BFD8F80000E9
:1015F000616800F00C00B0EB810F8DD0FFF744FD67
:10160000801BB842F2D90320BDE8F08140F21C00F3
:10161000C2F200000068704780B5FFF7F7FF43F69D
:101620000801C4F20201096844F2DC22C1F38221FC
:10163000C0F60002515CC84080BD000080B5FFF7D5
:10164000E5FF43F60801C4F20201096844F2DC2216
:10165000C1F34231C0F60002515CC84080BD0000B9
:1016600010B543F60404C4F20204606800F00C00F4
:1016700008280AD0042819BF42F20040C0F2F40042
:1016800047F64000C0F27D1010BD20682168236835
:10169000490247F64001C0F27D1100F03F02C3F35A
:1016A00088105CBF42F20041C0F2F401A1FB0001CE
:1016B0000023FEF785FD21680222C1F3014102EB00
:1016C0004101B0FBF1F010BD2DE9F04182B00028DE
:1016D00000F097800446007843F60006C007C4F285
:1016E000020641D0B06800F00C00042805D1306833
:1016F000800339D56068B8BB83E0B06800F00C00A7
:10170000082802D170684002F1D46568B5F5803FC1
:1017100006D03068B5F5A02F06D140F480203060A7
:10172000306840F4803005E020F48030306030686C
:1017300020F480203060FFF7A7FC002D054610D074
:101740003068800310D4FFF79FFC401B6428F7D952
:101750001AE100BFFFF798FC401B64284FF003001C
:101760004CD830688003F5D4207880071AD5B0684B
:1017700010F00C0F09D0B06800F00C00082840F001
:1017800084807068400200F180803068800702D554
:10179000E068012835D13068216920F0F80040EA7E
:1017A000C1003060207800072FD42078400742D451
:1017B000A56915B3B06800F00C00082840F09880C7
:1017C000012D1ED07068E16900F480028A4218D1B0
:1017D000216A00F03F028A4213D147F6C071626A63
:1017E000014091420DD1A16A00F440328A4208D1F1
:1017F000E16A00F07060884203D1002002B0BDE8C9
:10180000F081012002B0BDE8F0816069002840F25B
:101810000000C4F247205AD00121C0F8801EFFF713
:1018200033FC0546706F8007BFD4FFF72DFC401BCB
:101830000228F7D9A8E0306C4FF00008C0000CD4A3
:10184000CDF80480306C4FF0010840F080503064D7
:10185000306C00F080500190019847F20007C4F20C
:1018600000073868C00525D4386840F480703860B7
:10187000FFF70AFC054600BF3868C0051AD4FFF719
:1018800003FC401B0228F7D97EE0E068002851D015
:101890000020C4F2472001210160FFF7F5FB054657
:1018A000306880073FF577AFFFF7EEFB401B02285B
:1018B000F6D969E0A568012D05D0306F052D4DD111
:1018C00040F004003067306F40F001004CE0002130
:1018D000C0F8801EFFF7D8FB054600BF706F800779
:1018E0007FF563AFFFF7D0FB401B0228F6D94BE032
:1018F0000027C4F2472700203866FFF7C5FB022DFA
:1019000005460BD13068800156D5FFF7BDFB401B63
:1019100002284FF00300F5D970E700BF306880015E
:101920007FF56BAFFFF7B0FB401B02284FF00300C1
:10193000F4D963E70020C4F2472000210160FFF7DB
:10194000A3FB0546306880077FF52CAFFFF79CFBB3
:10195000401B02284FF00300F4D94FE720F00100AC
:101960003067306F20F004003067FFF78DFB002DEB
:10197000054641F2883713D0306F800713D4FFF744
:1019800083FB401BB842F7D9032002B0BDE8F081C9
:10199000FFF77AFB401BB8424FF003003FF62EAF33
:1019A000306F8007F4D4B8F1000F3FF401AF306C12
:1019B00020F080503064FBE604F11C052FCD084375
:1019C00040EA8210D9034FF6FF729143A1F58031AE
:1019D00040EA05600843706001203866FFF754FB59
:1019E000044600BF306880013FF507AFFFF74CFBAE
:1019F000001B02284FF00300F4D9FFE670B5A8B32E
:101A000000268662054690F8510020B9284685F8E0
:101A1000506000F02DF8022085F8510095E807107D
:101A20001143036841EA0C0123F0400303602A6973
:101A3000EC691143D5E90523114303F40072114306
:101A40002A6A2143AC6A11432143016004216A6A76
:101A500001EA134111434160C16921F40061C16190
:101A600001206E6585F85100304670BD012070BDC3
:101A700080B586B00021CDE90411CDE902110068DE
:101A800043F60002C4F200029042019124D043F2D6
:101A90000001C4F20101884249D1002043F630011F
:101AA0000090C4F202014A6942F480524A614A69D4
:101AB00002F480520092009A0090086840F0010001
:101AC0000860086800F0010000900098E020019094
:101AD0000020C4F202001FE043F630000091C4F27F
:101AE0000200026942F480420261026902F480420B
:101AF0000092009A0091016841F0020101600068C3
:101B000000F00200009000984FF460400190002027
:101B1000C4F2020000F580600221029100210391CD
:101B2000032104910521059101A9FFF7D5F906B01C
:101B300080BD00002DE9F04381B0044690F85000CC
:101B4000012803D1022001B0BDE8F0834FF0010964
:101B50001D4616460F4684F85090FFF795FA94F804
:101B60005110012959D18046002F4FF0010018BFB4
:101B7000002E00F09180032084F851000020606561
:101B80002763A686E686A063A087E087A168C4E9EC
:101B90001000B1F5004F04D12068016841F4804184
:101BA000016020680168490603D4016841F04001E2
:101BB00001606168731EE268B1FA81F1B3FA83F3E0
:101BC00049095B09B2F5006F41EA030127D139B138
:101BD000216B0988C160B81C2063E08E0138E08663
:101BE000E08E002841D06E1C0AE000BF216B31F866
:101BF000022BC2602163E08E0138E086E08EA0B344
:101C0000206881688907F1D4FFF73EFA002EF5D0ED
:101C1000A0EB0800A842F1D325E002203CE039B156
:101C200039780173206B01302063E08E0138E08643
:101C3000E08ED0B16E1C0AE0216B09780173206B35
:101C400001302063E08E0138E086E08E68B12068C4
:101C500081688907F0D4FFF717FA002EF5D0A0EBC2
:101C60000800A842F1D3032016E020462946424648
:101C700001F016FA00281CBF20206065A06838B962
:101C8000002000902068C168009180680090009852
:101C9000606D002818BF0120002184F8519084F85D
:101CA000501001B0BDE8F08380B501F0A5FA80BD09
:101CB000704700007047000010B590F83C20012AE2
:101CC0004FF0020252D0012380F83C3080F83D20D2
:101CD0000268D2F804E0D2F808C00C682EF0700355
:101CE000234341F2FF74C4F20004A24253600DDCAE
:101CF00040F2FF73C4F200039A4215DCB2F1804F48
:101D000029D040F20043C4F2000322E040F2FF3346
:101D1000C4F201039A4212DC41F60003C4F200034C
:101D20009A4218D0002312E040F60003C4F20003E8
:101D30009A4210D040F60043C4F2000309E044F296
:101D40000003C4F201039A4205D040F20043C4F2FA
:101D500001039A4204D149682CF080031943916031
:101D60000121002280F83D1080F83C20104610BD73
:101D7000002804BF0120704710B5044690F83D00CC
:101D800028B9002084F83C00204600F00DF802201D
:101D900084F83D002068211D01F0AEFA012084F88E
:101DA0003D00002010BD000080B582B00068B0F199
:101DB000804F01D002B080BD0020019043F640006A
:101DC000C4F202000168002241F0010101600068D4
:101DD000032100F00100019001981C20FFF752FB45
:101DE0001C20FFF74BFB02B080BD00000068C168FB
:101DF00041F00101C160816801F00701062903D0AB
:101E0000016841F0010101600020704710B50446EF
:101E100090F83C0001284FF0020008BF10BD0122DD
:101E200084F83C2084F83D0020684FF67773826880
:101E30009A4382600A683F2A14DD5F2A18DD602A0F
:101E400028D0B2F5005F2DD0702A40D1D1E9012C05
:101E5000CB68614601F0E2FA2068816841F07701C1
:101E6000816034E01F2A0FDC92B1102A10D02EE0DE
:101E7000402A23D0502A2AD14B68CA68194601F05B
:101E8000E1FA2068502120E0202A01D0302A1ED11A
:101E900011461AE04B68CA68194601F0E5FA206855
:101EA000602112E0D1E9012CCB68614601F0B6FA5D
:101EB0002068816841F48041816008E04B68CA680D
:101EC000194601F0BFFA2068402101F0B3FA012061
:101ED00084F83D00002084F83C0010BD70470000ED
:101EE00010B5044600680169890744BFC1685FEA0C
:101EF000817138D420680169490744BFC1685FEA2D
:101F000041713CD420680169090744BFC1685FEA98
:101F1000017141D420680169C90644BFC1685FEA04
:101F2000C16145D420680169C9071CBFC1685FEA67
:101F3000C1714AD120680169090644BFC1685FEADE
:101F4000016149D420680169490644BFC1685FEA5C
:101F5000416148D420680169890644BFC1685FEACD
:101F6000816147D410BD6FF0020101610121217729
:101F70008069800745D02046FFF7B0FF47E06FF04B
:101F80000401016102212177806910F4407F41D072
:101F90002046FFF7A3FF43E06FF008010161042131
:101FA0002177C06980073ED02046FFF797FF40E0C9
:101FB0006FF01001016108212177C06910F4407FA2
:101FC0003AD02046FFF78AFF3CE06FF00101016143
:101FD000204600F03FF8ADE76FF080010161204638
:101FE000FFF766FEAEE76FF040010161204600F0AA
:101FF0005FF8AFE76FF0200101612046FFF75AFE5E
:1020000010BD204600F022F8204600F021F8002004
:1020100020776FE7204600F019F8204600F018F806
:10202000002020776EE7204600F010F8204600F0F0
:102030000FF8002020776DE7204600F007F82046D3
:1020400000F006F8002020776CE7000070470000E1
:1020500070470000B0B50068B0F1804F18BFB0BD48
:1020600040F24C04C2F200042068411C3128216077
:1020700016DB40F24805C2F200052868052803D1A6
:1020800000F026FB002000E00130286041F600004F
:10209000C4F202004FF40041FEF7E8FF0020206088
:1020A00040F22800C2F2000001210160B0BD000032
:1020B000704700007047000070B502680446106861
:1020C000D168536900F02F02202A01F0200204D1C8
:1020D0001AB1204601F0FCF970BD5FEA007C07D020
:1020E00003F0010E11F4907F8EF001030ED16BB15D
:1020F0000840010606D4400658BF70BD204601F0D6
:10210000DBF970BD204601F0D7FA70BDC50718BFD6
:1021100011F4807503D0E56B45F00105E56300F02F
:102120000406012585EA96061E4303D1E66B46F0B8
:102130000206E66300F0020685EA56052B4303D14A
:10214000E36B43F00403E36352EA0E0218BF01227B
:10215000BCF1000F04D51AB1E26B42F00802E26351
:10216000E26B002ACDD00840800602D5204601F05F
:10217000AFF920684069E16B00F0400001F0080110
:1021800040181DD0204601F089F9206841694906B0
:1021900012D5416921F040014161606B60B143F2A9
:1021A0008D41C0F600010165FEF770FE0028A8D041
:1021B000606B016D884770BD2046FFF77BFF70BDE7
:1021C0002046FFF777FF0020E06370BD002804BFC2
:1021D0000120704710B5044690F8390028B9002056
:1021E00084F83800204600F021F8242084F83900D3
:1021F0002068C16821F40051C160204601F0A6F9B1
:102200002068016921F490410161416921F02A01AE
:102210004161C16841F40051C16000202021E063A8
:1022200084F8391084F83A1010BD000080B586B0EB
:10223000006844F6FF31C4F2000188424FF000010B
:102240000591CDE90311CDE901113DDD41F20041D8
:10225000C4F20101884271D041F20001C4F20101CF
:10226000884200F0978044F60041C4F200018842A1
:1022700040F08E80002043F630010090C4F202014D
:102280000A6942F400220A610A6902F400220092FB
:10229000009A0090086840F004000860086800F0A8
:1022A0000400009000984FF44060019002200290DA
:1022B0000120039003200490082005900020C4F220
:1022C000020000F5006034E044F20041C4F2000175
:1022D000884200F08F8044F60001C4F20001884279
:1022E00056D1002043F630010090C4F202010A6981
:1022F00042F480220A610A6902F480220092009A64
:1023000000900A6842F002020A60096801F00201C6
:10231000009100994FF4406101910221CDE9021032
:1023200003200490072005900020C4F2020000F56D
:10233000806001A9FEF7D0FD06B080BD002043F605
:1023400030010090C4F202014A6942F020024A6161
:102350004A6902F020020092009A00900A6842F056
:1023600004020A60096801F0040100910099C0218B
:1023700001910221CDE9021003200490082005906C
:102380000020C4F2020000F5006001A9FEF7A4FDE0
:1023900006B080BD002043F630010090C4F2020177
:1023A0004A6942F010024A614A6902F01002009242
:1023B000009A00900A6842F001020A60096801F080
:1023C0000101009100994FF4C06101910221CDE912
:1023D000021003200490072005900020C4F20200A0
:1023E00001A9FEF779FD252001210022FFF74AF817
:1023F00025202DE0002043F630010090C4F20201B8
:102400000A6942F400320A610A6902F40032009259
:10241000009A00900A6842F001020A60096801F01F
:102420000101009100990C2101910221CDE90210D6
:1024300003200490072005900020C4F2020001A9A7
:10244000FEF74AFD262002210022FFF71BF8262076
:10245000FFF714F806B080BD034690F83A00202834
:102460000AD100294FF0010018BF002A00D170479F
:1024700093F83800012801D10220704799620020AA
:1024800022219A85DA85D86383F83A10196883F88F
:102490003800CA6842F48072CA604A6942F0010298
:1024A0004A61CA6842F02002CA607047F0B581B044
:1024B00044F200450446C4F20005006805F54C41AD
:1024C00088422ED140F2B406C2F2000640F2A807BC
:1024D0003078C2F20007397808B9012916D17A7824
:1024E000012801D1022A11D1042841D15018B9780C
:1024F000FA783B7908441044984207D140F2B00082
:10250000C2F200000121016000F058FE002030708E
:1025100057FA80F140F21030C2F200000122FFF7BA
:102520009BFF2068A84201D001B0F0BD40F26404D6
:10253000C2F20004207840F25005C2F2000520B932
:1025400029780A2901D0002015E0012804D16978F2
:10255000FA2901D000200EE00D280BD140F26000D6
:10256000C2F200000121016000F078F8002002E0D2
:102570000130CCE70130207055FA80F140F2503044
:10258000C2F200000122FFF767FF01B0F0BD0000BA
:102590002DE9F041044690F8390020280DD10E466F
:1025A00000294FF0010052D01746002A08BFBDE8AD
:1025B000F08194F83800012802D10220BDE8F081B2
:1025C000012084F838004FF0000821201D46C4F88F
:1025D0003C8084F83900FEF757FDA784E78484F82F
:1025E0003880E18C804661B92046402142462B4626
:1025F00001F08EF838B30320BDE8F081E08C0028AC
:10260000F2D0E08C80210138E084A7682046424661
:102610002B4601F07DF8B7F5805F0DD10028EAD197
:102620003088216922686FF35F200029506014BF51
:1026300001360236E2E700BF0028DCD116F8010BB4
:1026400021684860DAE7202084F839000020BDE8DE
:10265000F081000070470000FEE7000040F26000DB
:10266000C2F200000168012918BF704740F2500112
:10267000C2F20001B1F8072040F23003C2F20003B9
:10268000C97AA3F80D2040F25F02C2F20002597429
:10269000117000210160704780B582B0FF208DF875
:1026A000070041F20000C4F2020001210122FEF7FE
:1026B000E5FC3220FEF7FCFB40F22020C2F20000D5
:1026C0000DF1070101220123FFF734FA02B080BDAA
:1026D000F0B581B040F2DC04C2F200042046FEF7FF
:1026E00053FB20464FF4FA71FEF7F4FA2046FEF74A
:1026F0008DFA800505D540F2DC00C2F20000FEF73D
:1027000087FA40F23001C2F2000100EE100A48825E
:10271000B8EEC00A10EE100AFDF71DFF9FED1C0B6E
:1027200053EC102BFDF736FE9FED1B0B53EC102BDB
:10273000FDF730FEFDF722FFFDF70DFF9FED180BB3
:10274000044653EC102B0D46FDF724FE22462B4683
:10275000FDF720FE9FED140B06460F4653EC102BA1
:1027600020462946FDF716FE32463B46FDF76BFD37
:102770009FED0F0B53EC102BFDF765FDFDF7FEFEF3
:1027800040F22C01C2F20001086001B0F0BD00BFB0
:102790006666666666664A3F0000000000408F403D
:1027A0008971B5505DB9E1BE7993DFA293A5C6BF2B
:1027B0007F6ABC74938C694070B582B040F2680542
:1027C000C2F20005296804460F2914DA080181B213
:1027D00000204FF6FF7244F208230094FEF7C2F87F
:1027E000286840F26C01C2F2000141F8204001303B
:1027F000286002B070BD40F26C066FF00300C2F2B8
:10280000000600BF31188A68043034284A60F9D1C4
:1028100044F20820B46300F011F8002456F8245064
:10282000200181B2002000224FF6FF730095FEF7D1
:1028300099F801340F2CF1D102B070BD70B5044687
:102840000020002140F23F12EF23002500F02AF97A
:102850006FF00106204600F071F9204600F06EF995
:102860000236EE2EF6D30135B5F5A07F08BF70BD58
:10287000EEE7000080B5FFF70FFF00F0FDF8CB207A
:1028800000F066F9392000F03FF92C2000F03CF907
:10289000002000F039F9342000F036F9022000F071
:1028A00033F9CF2000F054F9002000F02DF9C120B9
:1028B00000F02AF9302000F027F9E82000F048F96C
:1028C000852000F021F9002000F01EF9782000F0AA
:1028D0001BF9EA2000F03CF9002000F015F9002077
:1028E00000F012F9ED2000F033F9642000F00CF94B
:1028F000032000F009F9122000F006F9812000F011
:1029000003F9F72000F024F9202000F0FDF8C020A2
:1029100000F01EF9232000F0F7F8C12000F018F9AC
:10292000102000F0F1F8C52000F012F93E2000F070
:10293000EBF8282000F0E8F8C72000F009F986201D
:1029400000F0E2F8362000F003F9E82000F0DCF8AF
:102950003A2000F0FDF8552000F0D6F8B12000F044
:10296000F7F8002000F0D0F8182000F0CDF8B620DD
:1029700000F0EEF8082000F0C7F8822000F0C4F85C
:10298000272000F0C1F8F22000F0E2F8002000F06B
:10299000BBF8262000F0DCF8012000F0B5F8E020BC
:1029A00000F0D6F80F2000F0AFF8312000F0ACF8BE
:1029B0002B2000F0A9F80C2000F0A6F80E2000F063
:1029C000A3F8082000F0A0F84E2000F09DF8F120B8
:1029D00000F09AF8372000F097F8072000F094F8FC
:1029E000102000F091F8032000F08EF80E2000F087
:1029F0008BF8092000F088F8002000F085F8E1202D
:102A000000F0A6F8002000F07FF80E2000F07CF81F
:102A1000142000F079F8032000F076F8112000F07F
:102A200073F8072000F070F8312000F06DF8C12035
:102A300000F06AF8482000F067F8082000F064F819
:102A40000F2000F061F80C2000F05EF8312000F05B
:102A50005BF8362000F058F80F2000F055F81120F0
:102A600000F076F87820FEF723FA292000F070F8BD
:102A70002C2000F06DF880BD10B541F20004C4F2C6
:102A80000204204601210022FEF7F8FA6420FEF736
:102A90000FFA204601210122FEF7F0FA3220FEF75C
:102AA00007FA10BDF0B581B007462A201C4615462E
:102AB0000E4600F04DF8384600F040F8284600F089
:102AC0003DF82B2000F044F8304600F037F820465F
:102AD00000F034F82C2000F03BF801B0F0BD00000D
:102AE000B0B505462A200C4600F032F8284600F022
:102AF00025F82B2000F02CF8204600F01FF82C20A1
:102B000000F026F8B0BD0000B0B541F20005C4F2F7
:102B100002050446284602210022FEF7AFFA2846A5
:102B200004210122FEF7AAFA204600F035FB2846D0
:102B300002210122FEF7A2FAB0BD000010B5044642
:102B4000000AFFF7E1FFE0B2FFF7DEFF10BD000073
:102B5000B0B541F20005C4F2020504462846022140
:102B60000022FEF78BFA284604210022FEF786FA9F
:102B7000204600F011FB284602210122FEF77EFAD2
:102B8000B0BD0000B0B584B040F2DC0042F20001FC
:102B900001230024C2F20000C4F20101C0F6007358
:102BA0000125CDE90244CDE900444FF440320476DA
:102BB00080F82040C0E90A34C56180F8304080E8E0
:102BC0001600C0E903444561FEF726F8002818BF47
:102BD000FDF7C6FE40F2DC00C2F200006946CDE916
:102BE00000450294FDF78EFF002818BFFDF7B8FEE0
:102BF00004B0B0BD2DE9F04F87B0002443F630009B
:102C00000694CDE90444CDE902440194C4F20200E3
:102C1000016840F6004941F0100101600168C4F20A
:102C2000020901F01001019101990194016809F56F
:102C3000806A41F0200101600168012201F0200159
:102C40000191019901940168072641F0800101601A
:102C50000168012501F08001019101990194016849
:102C600041F001010160016801F001010191019948
:102C70000194016841F002010160016801F0020164
:102C8000019101990194016841F008010160016816
:102C900001F00801019101990194016841F00401DA
:102CA0000160016801F0040101910199019401683A
:102CB00041F0400101600068072100F040000190F0
:102CC00001985046FEF7DAF909F5006738463C21CD
:102CD00001224FF03C0BFEF7D1F9484640F6015176
:102CE0000022FEF7CBF909F5406840464FF4004159
:102CF0000122FEF7C3F9CDE9026502AE5046314626
:102D0000CDE90454FEF7E8F838463146CDE902B57E
:102D1000CDE90454FEF7E0F84FF4707002A931C118
:102D200038463146FEF7D8F84FF45060CDE9020539
:102D300048463146CDE90444FEF7CEF84FF4007022
:102D400002900020C1F22100CDE90305484631463A
:102D5000FEF7C2F80320CDE90255059048463146FA
:102D60000494FEF7B9F84FF40040CDE9020540465F
:102D70003146CDE90444FEF7AFF807B0BDE8F08F67
:102D800080B540F2241045F20041C2F20000C4F2C6
:102D9000000148F2A06200234FF4804CC0F201020F
:102DA00080E80E00C0E9033CC0E90533C0E9073301
:102DB000FEF770F9002818BFFDF7D2FD80BD0000B6
:102DC00080B540F2781045F60001C2F20000C4F26E
:102DD000000148F2A06200234FF4804CC0F20102CF
:102DE00080E80E00C0E9033CC0E90533C0E90733C1
:102DF000FEF750F9002818BFFDF7B2FD80BD0000B6
:102E000080B540F2CC1045F60041C2F20000C4F299
:102E1000000148F2A06200234FF4804CC0F201028E
:102E200080E80E00C0E9033CC0E90533C0E9073380
:102E3000FEF730F9002818BFFDF792FD80BD0000B5
:102E400010B540F2202043F20001C2F20000C4F2AB
:102E500001014FF48272002380E80E0000F10C01A2
:102E60004FF0020C4FF0010E4FF4007481E808504F
:102E70000A21C0E90643C0E90833C0E90A31FEF778
:102E8000BDFD002818BFFDF76BFD10BD10B540F269
:102E9000782043F60001C2F20000C4F200014FF4B2
:102EA000827200234FF0010C4FF4007E182480E85A
:102EB0000E000A21C0E90333C0E905CEC461C0E9B0
:102EC0000833C0E90A31FEF799FD002818BFFDF765
:102ED00047FD10BD80B586B040F2D0200021C2F27F
:102EE00000004FF0804242F2CF034FF0630CCDE977
:102EF0000411CDE90211CDE90011C0E90023C0E9B8
:102F0000021C01618161FEF733FF002818BFFDF745
:102F100027FD4FF48050029040F2D020C2F2000012
:102F200002A9FEF773FF002818BFFDF719FD002066
:102F3000CDE9000040F2D020C2F200006946FEF761
:102F4000BBFE002818BFFDF70BFD06B080BD0000DA
:102F500080B540F2D03044F60041C2F20000C4F225
:102F6000000100234FF00C0C4FF4E13280E80E001A
:102F7000C0E90333C0E905C3C361FFF727F900289F
:102F800018BFFDF7EDFC80BD80B540F2103041F276
:102F90000001C2F20000C4F2010100234FF00C0C4A
:102FA0004FF4E13280E80E00C0E90333C0E905C305
:102FB000C361FFF70BF9002818BFFDF7D1FC80BDF6
:102FC00080B540F2503044F20041C2F20000C4F239
:102FD000000100234FF00C0C4FF4E13280E80E00AA
:102FE000C0E90333C0E905C3C361FFF7EFF8002868
:102FF00018BFFDF7B5FC80BD80B540F2903044F6B7
:103000000001C2F20000C4F2000100234FF00C0CDA
:103010004FF4E13280E80E00C0E90333C0E905C394
:10302000C361FFF7D3F8002818BFFDF799FC80BDF6
:1030300080B540F2104041F20041C2F20000C4F2FB
:10304000010100234FF00C0C4FF4E13280E80E0038
:10305000C0E90333C0E905C3C361FFF7B7F800282F
:1030600018BFFDF77DFC80BDFEE700007047000043
:1030700000F0070080F00703042B28BF04234FF063
:10308000FF3C03380CFA03F338BF0020994381401A
:103090000CFA00F022EA0000084370477047000075
:1030A00010B582B040F21C03C2F200031B6849F65F
:1030B0008174C1F25E64A3FB043C04464FEA5C5099
:1030C0004FF47A73584301906068B0F5827F0DD158
:1030D00013460A462046802100F014F878B1606D4E
:1030E00040F020006065032002B010BD019830B1AF
:1030F000019801380190206880680006F6D400200D
:1031000002B010BD2DE9F04180460068806808409B
:1031100088423DD11D460E461746541C06E000BFAE
:10312000D8F8000080683040B04231D1002CF7D090
:10313000FDF7AAFF401BB842F2D3D8E9000142686C
:10314000B1F5827F22F0E00242600BD1D8F808107E
:10315000B1F5004F02D0B1F5806F03D1016821F0C5
:1031600040010160D8F82810B1F5005F07D101686F
:1031700021F400510160016841F400510160012017
:1031800088F85100002088F850000320BDE8F08145
:103190000020BDE8F081000080B582B08DF8070006
:1031A00040F22020C2F200000DF1070101220123AC
:1031B000FEF7C0FC02B080BD7047000040F2B000D6
:1031C000C2F200000168012918BF704740F2A8014F
:1031D000C2F2000140F230028B78C978C2F20002DC
:1031E0005370917040F2AE0243EA0121C2F2000234
:1031F0001180002101607047B0B501380024B4EBA4
:10320000106F1CBF0120B0BD4EF21005CEF20005BC
:1032100068604FF0FF300F2100F090FB0720AC609A
:1032200028602046B0BD000080B5FEF7B9F880BD2B
:1032300070B592B006AC20463021FCF7F9FF0025AE
:1032400043F640000595CDE90355CDE901550095BC
:10325000C4F202000168022641F08051016000685A
:1032600000F080500090009847F200000095C4F2F2
:103270000000016841F480410160006800F4804072
:1032800000900098012006904FF4803007904FF492
:1032900080000D9019200E904FF4A8700C96CDE987
:1032A0000F06072011902046FEF70EFA0F20CDE9F9
:1032B00001064FF4A05004904FF48050059001A8EF
:1032C00005210395FEF7F2F812B070BD4EF6885056
:1032D000CEF20000016841F4700101604FF000611E
:1032E00040F8801C7047000080B540F2D020C2F248
:1032F0000000FEF7F5FD80BD10B540F6FF3E036807
:10330000C4F2000E40F2004C7045C4F2010C0FDC18
:10331000B0F1804F19D040F20042C4F20002904256
:1033200013D040F60002C4F2000290420DD010E02B
:1033300040F60042C4F20002904206D0604504D03C
:103340000022C4F20102904203D14A6823F07003C4
:10335000134341F6FF72C4F2000290420DDC704547
:103360001FDCB0F1804F41D040F20042C4F20002B5
:1033700090423BD040F6000221E043F6FF72C4F2D7
:103380000102904220DC42F20002C4F200029042AC
:103390002CD00022C4F20102904227D0604525D0F3
:1033A00028E040F60042C4F2000290421ED041F6EE
:1033B0000002C4F20002904218D041F60042C4F26A
:1033C0000002904212D015E044F20002C4F2010261
:1033D00090420BD044F60002C4F20102904205D0A4
:1033E00044F20042C4F20102904203D1CA6823F4BD
:1033F0004073134323F080024B69D1F800E08C68DE
:103400001A430260C46240F48062C0F828E062455A
:1034100004BF096901630121416110BDD0F808C0F2
:1034200011432CF47F4C41EA032141EA0C018160F5
:1034300070470000826822F07002114341F00701DA
:1034400081607047D0F820C0036A23F00103036253
:10345000836923F0F00343EA02122CF00A031943B4
:103460008261016270470000036A23F01003036267
:103470008369D0F820C023F4704343EA02322CF071
:10348000A00343EA011182610162704780B5806B3D
:103490000021C185C184FEF70DFE80BD0168CA68A8
:1034A00022F49072CA604A6922F001024A61202126
:1034B00080F83A107047000080B50168CA6822F0B1
:1034C0004002CA60202180F83910FFF7C3F880BDA0
:1034D00080B590F83A10222937D18168B1F5805F24
:1034E00009D102680369816A526883B1836AD2B2E2
:1034F0000A80591C10E0016802694968002A826A42
:1035000018BF01F07F01531C8362117005E0836ACC
:103510006FF35F220A80991C8162C18D01390A0410
:10352000C18518BF80BD0168CA6822F02002CA6048
:10353000CA6822F48072CA604A6922F001024A61B4
:10354000202180F83A10FEF7B1FF80BDB0B50546E6
:10355000006805F108030ECB0469194324F44054B4
:10356000224302616A69EB691143C26849F20C6443
:103570001943A2431143C1604169AA6921F4407112
:103580001143416141F20041B3F5004F40F48060C6
:10359000C4F2010124D1884246D1FEF74FF86B688E
:1035A0001921A0FB01015A00DB0FFCF709FE48F2CC
:1035B0001F51C5F2EB11A0FB01235A096FF0630301
:1035C00002FB0300322303EBC000A0FB01014FF418
:1035D000F87000EA111000EB0210C1F3421167E02D
:1035E000884244D1FEF72AF86B681921A0FB01013B
:1035F0009A009B0FFCF7E4FD48F21F51C5F2EB1156
:10360000A0FB01235A096FF0630302FB030032237E
:1036100003EB0010A0FB0101F02000EA511000EBC9
:103620000210C1F3431143E0FDF7F6FF6B68192167
:10363000A0FB01015A00DB0FFCF7C2FD48F21F514D
:10364000C5F2EB11A0FB01235A096FF0630302FBE3
:103650000300322303EBC000A0FB01014FF4F8701C
:1036600000EA111000EB0210C1F3421120E0FDF757
:10367000D3FF6B681921A0FB01019A009B0FFCF797
:103680009FFD48F21F51C5F2EB11A0FB01235A091F
:103690006FF0630302FB0300322303EB0010A0FB77
:1036A0000101F02000EA511000EB0210C1F34311B8
:1036B0002A6808439060B0BD90F83910212926D1BE
:1036C0008268016AB2F5805F0DD10A880369D0F87B
:1036D00000C06FF35F22002BCCF8042014BF01312F
:1036E0000231016204E04A1C0262097802685160FA
:1036F000C18C01390A04C18418BF70470068C168D1
:1037000021F08001C160C16841F04001C160704793
:103710002DE9F0410446006800680840884202D163
:103720000020BDE8F0811D460E4690465F1C04E077
:10373000206800683040B042F2D0002FF8D02DB1A0
:10374000FDF7A2FCA0EB0800A842F1D92068C168EF
:1037500021F4D071C160416921F001014161202053
:1037600084F8390084F83A00002084F838000320F7
:10377000BDE8F08180B540F21030C2F20000FEF7E3
:103780009BFC80BD80B540F25030C2F20000FEF7D5
:1037900093FC80BDB0B582B040F2B804C2F2000420
:1037A00020462121FCF744FD40F2AE00C2F20000A9
:1037B000028823A1204600F007F940F25045C2F2EA
:1037C00000052870052005214FF6FF7244F20823FA
:1037D0000094FDF7C7F820462121FCF729FD40F2AF
:1037E0005F00C2F2000002781AA1204600F0ECF857
:1037F0002870052019214FF6FF7244F20823009427
:10380000FDF7B0F820462121FCF712FD40F22C0014
:10381000C2F200000068FCF79EFE02460B4612A1B1
:10382000204600F0D1F8287005202D214FF6FF72B8
:1038300044F208230094FDF795F802B0B0BD00BF34
:1038400053746570436F756E743A20256420202090
:10385000000000004865617274436F756E743A2011
:103860002564202020000000436F6E74616374544F
:10387000656D703A20252E33662020200000000060
:10388000FEE7000080B5FEF7F5FF44F20820FEF7E2
:10389000D5FF40F20000C2F20000FEF78DFF40F2BB
:1038A000B400C2F20000007840F2A801C2F20001A8
:1038B000014440F21030C2F200000122FEF7CCFDBC
:1038C00040F2D020C2F20000FEF790FA40F264000D
:1038D000C2F20000007840F25001C2F2000101443F
:1038E00040F25030C2F200000122FEF7B5FD642024
:1038F000FDF7DEFA44F20820FEF7A0FF80BD0000CD
:1039000080B5FCF7FBFFFFF745FF80BD002848BFEF
:10391000704700F01F01012202FA01F14EF200127D
:103920004009CEF2000242F8201070474EF60C50CB
:10393000CEF200000068C0F3022070474EF6145328
:1039400000F00F02CEF2000309011A4400F16043B7
:10395000B0F1FF3FC8BF03F564421170704700002B
:103960004EF60C51CEF200010A684FF6FF031A40E2
:1039700060F30A2242F0806040F0FD7008607047FA
:10398000FDF71CFDFFF754FCFFF734F9FFF7FAF8D9
:10399000FFF7F6F9FFF79EFAFFF7F6FAFFF750FA8E
:1039A000FFF70EFBFFF772FAFFF726FBFFF708FAA7
:1039B000FFF7CEFAFFF73CFBFFF722FAFFF762FFB3
:1039C000FFF79EFFFCE700000FB4084B10B504A9F9
:1039D00002AA039800F0DEF8044602A9002000F0D5
:1039E00070FC204610BC5DF814FB0000C3420008C8
:1039F00002E008C8121F08C1002AFAD170477047B8
:103A0000002001E001C1121F002AFBD17047000015
:103A10002DE9FF5F82B00021DDE90430020DDDF801
:103A200040B0034318D044F61050A2F2FF32424394
:103A30001514119801281FD0A5EB0B00401C5FEA5C
:103A4000000A4FF000064E4FDFF83891B04650465E
:103A500015D5CAF1000413E0119801244AA30128E6
:103A600001D16FEA0B010298119AC0E90031C0E957
:103A7000024206B0BDE8F09FCBF10000DFE704464C
:103A80000021404A491842EB0450CDE9001012E0F1
:103A9000E00707D032463B4640464946FCF77AFCF1
:103AA0008046894632463B4610461946FCF772FC72
:103AB00006460F466410002CEAD1DDE90401DDE979
:103AC0000023BAF1000F06DAFCF764FC42464B46CD
:103AD000FCF760FC05E0FCF7CFFC42464B46FCF7E8
:103AE000CBFC04460E460022284BFCF757FE03D8B9
:103AF0004FF0FF30014607E00022254B20463146BB
:103B0000FCF7A1FBFCF731FE102409E0002C0ADBD6
:103B10000A220023FCF754FB039B30321A55641E23
:103B200050EA0102F2D1641C039AC4F11103144457
:103B3000119A012A03D0012208430DD10AE008435B
:103B400004D000204FF0110B119072E7A3EB0B058E
:103B50006D1E0DE05B4504DD4FF0000205F101052F
:103B600004E003DA4FF00002A5F10105002AECD0D1
:103B700002981199C0E90231C0E9004579E70000D7
:103B8000000014400000F03F300000000000F0434F
:103B90000000E03F2DE9FF4F95B09B468946064661
:103BA00000250FE2252877D100242746F84A012175
:103BB000059400E0044316F8013F203B01FA03F0AE
:103BC0001042F7D130782A2811D06FF02F033078C7
:103BD000A0F13002092A16D8059A44F0020402EB3B
:103BE000820203EB42021044761C0590EFE759F87D
:103BF000042B0592002A03DA504244F40054059045
:103C000044F00204761C30782E2816D116F8010FE5
:103C100044F004042A280DD06FF02F023078A0F170
:103C20003003092B09D807EB870302EB4303C718BE
:103C3000761CF3E759F8047B761C30786C280FD09B
:103C400006DC4C2817D068280DD06A2814D104E06F
:103C5000742810D07A280FD10DE044F400140AE043
:103C600044F4801401E044F440147278824202D19A
:103C700004F58014761C761C307866280BD013DC93
:103C8000582877D009DC002875D04528F6D046287A
:103C9000F4D047281AD19DE118E0632835D0642874
:103CA00079D0652812D195E1702873D008DC672897
:103CB000F1D069286FD06E280DD06F2806D1B5E0FD
:103CC00073282CD0752875D0782874D05A46179947
:103CD00090476D1C75E1C4F30250022809D00328F7
:103CE0000DD0D9F8001004280DD00D6009F1040999
:103CF00067E1D9F80010EA17C1E90052F6E7D9F8F0
:103D000000100D80F2E70D70F0E719F8041B8DF834
:103D1000001000208DF80100EA46012003E059F868
:103D200004AB4FF0FF3061074FF0000102D40DE00B
:103D300008F101018846B9420FDA8045F8DB1AF82C
:103D400008100029F4D108E008F1010188468142F9
:103D5000FADB1AF808100029F6D105985B46A0EBAB
:103D6000080721463846179A00F094FA284400EBD9
:103D7000080507E04DE029E10DE01AF8010B5A466D
:103D800017999047B8F10108F7D25B4621463846AB
:103D9000179A13E142E00A220092C4F302524FF054
:103DA000000A022A08D059F804CB032A4FEAEC7122
:103DB0000AD00DE029E02AE009F1070121F007020D
:103DC000F2E802C1914609E00FFA8CFC4FEAEC716F
:103DD000042A03D14FFA8CFC4FEAEC71002907DA70
:103DE0000A460021DCF1000C61EB02012D2202E009
:103DF000220504D52B228DF80420012203E0E207DE
:103E000001D02022F7E7904659E00A2102E0102273
:103E10000DE010214FF0000A00910BE010224FF04E
:103E2000000A44F004040827009203E008224FF03F
:103E3000000A0092C4F30252022A05D059F804CBBA
:103E40000021032A08D009E009F1070121F0070247
:103E5000F2E802C1914605E01FFA8CFC042A01D168
:103E60000CF0FF0C4FF00008220728D5702806D070
:103E7000009B83F0100353EA0A0305D00EE04022B2
:103E80008DF80420012208E05CEA010206D030220D
:103E90008DF804208DF8050002229046009B83F0E7
:103EA000080353EA0A030AD15CEA010201D162075E
:103EB00005D530228DF804204FF001087F1E5828C8
:103EC00004D034A003900EA802900DE036A0F9E7CC
:103ED00053466046009AFCF773F984460398825C67
:103EE0000298401E029002705CEA0100F0D1029834
:103EF00006A9081A00F1200A600702D524F48034CC
:103F000000E00127574502DDA7EB0A0000E0002092
:103F100000EB0A01009005984144401A0590E00327
:103F200006D45B462146179A059800F0B3F905447C
:103F3000002706E001A85A46C05D179990476D1CFE
:103F40007F1C4745F6DBE0030CD55B462146179AFC
:103F5000059800F09FF9054404E030205A4617996F
:103F600090476D1C0099481E00900029F5DC08E080
:103F7000029802995A460078491C02911799904775
:103F80006D1CBAF10001AAF1010AF1DC65E1000043
:103F9000092801003031323334353637383961621F
:103FA00063646566000000003031323334353637E3
:103FB00038394142434445460000000000F058F9BA
:103FC0000544761C307800287FF4ECAD19B0284603
:103FD000BDE8F08F620700D4062709F1070222F03E
:103FE000070CFCE80223E14603F000485FEA080CF6
:103FF00002D00FF2702C0DE05FEA045C02D50FF2E4
:10400000682C07E05FEAC47C02D00FF2602C01E06C
:10401000AFF2700C4FF0FF3823F00043CDF850C0E2
:1040200065280CD006DC452809D046281DD0472835
:104030003DD13DE0662818D067287ED138E00021C8
:10404000112F01DB112000E0781CCDE9000106A949
:104050000EA8FFF7DDFCDDE90F010E9A03910021A8
:10406000009207F1010A04914DE04FF000400097E3
:10407000CDE9011006A90EA8FFF7CAFCDDE90F0281
:1040800003920E9B11990022DDF80CA0009304927C
:1040900011B9791C00EB010AB7EB0A0004D4C0F196
:1040A000FF3007F1010A0490AAEB0700019044E0F9
:1040B000012F00DA01270021112F01DD112000E07E
:1040C0003846CDE9000106A90EA8FFF7A1FCDDE9FD
:1040D0000F010E9A0391002104910092BA46210724
:1040E0000CD40399514500DA8A46BAF1010F05DD77
:1040F000009AAAF10101515C302908D0B84202DAD5
:1041000010F1040F06DA0121CDE9011015E0AAF142
:104110000101E9E7002805DC049901440491AAEBB8
:10412000000102E0411C514500DD8A460499401A15
:10413000401C01904FF000400290200704D40198E9
:10414000504501DBCDF8048000208DF84F00029827
:104150000DF14F07B0F1004F25D02B200E900298A3
:104160004FF0020800280CDA404202902D200E90F9
:1041700007E00A210298FCF71DFA3031029007F897
:10418000011DB8F10001A8F10108F2DC0298002835
:10419000EFD1791E0E980870307800F0200040F0C2
:1041A000450007F8020D12A8C01B00F1070814987B
:1041B000007800B1012000EB0A01019801EBE071E9
:1041C00005984144401A401E0590E00306D45B4622
:1041D0002146179A059800F05DF805441498007878
:1041E00018B15A46179990476D1CE00324D55B46D9
:1041F0002146179A059800F04DF805441CE00498F4
:10420000002807DBDDE90301884203DD0098405CFC
:10421000179901E0179930205A469047049805F104
:104220000105401C04900198401E019004D12E20ED
:104230005A46179990476D1CBAF10001AAF1010A7C
:10424000DDDC05E017F8010B5A46179990476D1C05
:10425000B8F10001A8F10108F4DC5B462146179A89
:104260000598ABE62D0000002B00000020000000A8
:104270002DE9F041044600251E461746880404D463
:1042800005E039462020B0476D1C641EF9D528464C
:10429000BDE8F0812DE9F041044600251E46904618
:1042A000C80301D5302700E02027880404D505E0A5
:1042B00041463846B0476D1C641EF9D52846BDE816
:1042C000F0810A68531C0B601070704700000000FA
:1042D00000000000010203040607080900000000B6
:1042E00001020304000000000000000000000000C4
:1042F000000000000010101010101010101000002E
:104300001010000000006C6C24240000000001006C
:10431000000000000024242424FE48484848FC9063
:104320009090900000103C549290503814121292C9
:10433000547810000000225C94A8481010242A52DF
:1043400054880000000030484850206E54948C88F7
:104350008A740000000030301010000000000000DF
:104360000000000000040810102020202020201051
:1043700010080400008040202010101010101020A1
:104380002040800000000000105438103854100005
:104390000000000000000010101010FE101010109F
:1043A000000000000000000000000000000000000D
:1043B0001010200000000000000000FE00000000BF
:1043C00000000000000000000000000000000000ED
:1043D00010100000000004040808101020204040C5
:1043E0008080000000003844828282828282828241
:1043F0004438000000001070101010101010101041
:10440000107C0000000038448282040810204082A2
:1044100084FC000000003844820204380402028256
:10442000443800000000040C141424244444FE0406
:10443000040E00000000FC808080B8C4820202826A
:104440008478000000003C428280B8C4828282826C
:104450004438000000007E4282040408080810105E
:104460001010000000003844828244384482828266
:10447000443800000000384482828282463A028238
:104480004438000000000000101000000000101070
:1044900000000000000000001010000000000010EC
:1044A0001020000000000000061860806018060060
:1044B00000000000000000000000FE0000FE000000
:1044C0000000000000000000C0300C020C30C000F2
:1044D000000000000038448282020408101010001E
:1044E0001010000000003844829AAAAAAAAAAA962C
:1044F00080423C00000010101028282844447C44CE
:1045000044EE00000000FC424242427C42424242F1
:1045100042FC000000003C448280808080808282D7
:10452000443800000000F8444242424242424242C3
:1045300044F800000000FC444240447C44404042B7
:1045400044FC00000000FC444240447C44404040A5
:1045500040F000000000344C828080808E8484848F
:104560004C3400000000EE444444447C4444444441
:1045700044EE000000007C101010101010101010FD
:10458000107C000000003E08080808080808088899
:10459000887000000000EE4448485060504848448D
:1045A00044EE00000000E0404040404040404042B7
:1045B00044FC00000000C6446C6C6C5454544444E9
:1045C00044EE00000000CE4464646454544C4C4CEF
:1045D00044E4000000003844828282828282828227
:1045E000443800000000F8444242424478404040D1
:1045F00040E000000000384482828282828282BAD7
:10460000443C02000000F04844444448704844449C
:1046100044E6000000003C44828040300C020282EC
:104620004478000000007C549210101010101010FC
:10463000103800000000EE444444444444444444E0
:10464000443800000000EE44444444282828281040
:10465000101000000000EE445454545454542828C0
:10466000282800000000EE44442828101028284480
:1046700044EE00000000EE444428282810101010DA
:104680001038000000007E4484080810202040827A
:1046900084FC0000001C10101010101010101010DE
:1046A00010101C000000EE445454FE5454542828AA
:1046B000282800000070101010101010101010109A
:1046C000101070000030488400000000000000005E
:1046D00000000000000000000000000000000000DA
:1046E0000000FE000040200000000000000000006C
:1046F000000000000000000000007884047C848436
:104700008C7600000000C040404058644242424263
:104710006458000000000000000038448080808061
:104720004438000000000C040404344C8484848465
:104730004C360000000000000000788484FC80807B
:1047400084780000000018242020F8202020202059
:10475000207000000000000000003A444478807C93
:1047600082827C000000C04040405864444444447D
:1047700044EE000000001010000030101010101067
:104780001038000000001010000030101010101041
:10479000109060000000C04040405C4850605048AD
:1047A00044EE000000003010101010111010101016
:1047B00010390000000000000000ACD292929292EA
:1047C00092D6000000000000000058E44444444435
:1047D00044EE000000000000000038448282828223
:1047E00044380000000000000000D86442424264E7
:1047F0005840E000000000000000364C8484844CE7
:1048000034040E000000000000006C302020202046
:104810002070000000000000000078888460188488
:1048200044780000000000202020F82020202020D4
:1048300024180000000000000000C642424242422C
:10484000463A0000000000000000EE4444282828FA
:1048500010100000000000000000EE4444545428F2
:1048600028280000000000000000EE442810102856
:1048700044EE0000000000000000EE444428281030
:1048800010A0C0000000000000007E4488102042FC
:1048900084FC0000000C101010101060101010109C
:1048A00010100C000010101010101010101010102C
:1048B0001010100000C020202020201820202020D0
:1048C0002020C00000000000000000728C000000EA
:1048D00000000000000000000000000000000000D8
:1048E00000000000000000000000000000000000C8
:1048F000000000000000000018490008000000202F
:1049000028000000F0390008404900082800002075
:1049100030140000003A000853797374656D206903
:104920006E697469616C697A696E672E2E2E2E2EFF
:104930002E2E00000024F4000100000010000000F2
:040000050800018965
:00000001FF
